{
  "_format": "hh-sol-artifact-1",
  "contractName": "LoanContract",
  "sourceName": "contracts/FinFlow.sol",
  "abi": [
    {
      "inputs": [
        {
          "internalType": "address",
          "name": "_nftAddress",
          "type": "address"
        }
      ],
      "stateMutability": "nonpayable",
      "type": "constructor"
    },
    {
      "anonymous": false,
      "inputs": [
        {
          "indexed": false,
          "internalType": "uint256",
          "name": "loanId",
          "type": "uint256"
        },
        {
          "indexed": false,
          "internalType": "address",
          "name": "lender",
          "type": "address"
        },
        {
          "indexed": false,
          "internalType": "uint256",
          "name": "amount",
          "type": "uint256"
        }
      ],
      "name": "LoanFunded",
      "type": "event"
    },
    {
      "anonymous": false,
      "inputs": [
        {
          "indexed": false,
          "internalType": "uint256",
          "name": "loanId",
          "type": "uint256"
        }
      ],
      "name": "LoanLiquidated",
      "type": "event"
    },
    {
      "anonymous": false,
      "inputs": [
        {
          "indexed": false,
          "internalType": "uint256",
          "name": "loanId",
          "type": "uint256"
        }
      ],
      "name": "LoanRepaid",
      "type": "event"
    },
    {
      "anonymous": false,
      "inputs": [
        {
          "indexed": false,
          "internalType": "uint256",
          "name": "loanId",
          "type": "uint256"
        },
        {
          "indexed": false,
          "internalType": "address",
          "name": "borrower",
          "type": "address"
        },
        {
          "indexed": false,
          "internalType": "uint256",
          "name": "amount",
          "type": "uint256"
        },
        {
          "indexed": false,
          "internalType": "uint256",
          "name": "collateral",
          "type": "uint256"
        },
        {
          "indexed": false,
          "internalType": "uint8",
          "name": "riskCategory",
          "type": "uint8"
        }
      ],
      "name": "LoanRequested",
      "type": "event"
    },
    {
      "anonymous": false,
      "inputs": [
        {
          "indexed": true,
          "internalType": "address",
          "name": "previousOwner",
          "type": "address"
        },
        {
          "indexed": true,
          "internalType": "address",
          "name": "newOwner",
          "type": "address"
        }
      ],
      "name": "OwnershipTransferred",
      "type": "event"
    },
    {
      "inputs": [
        {
          "internalType": "uint256",
          "name": "",
          "type": "uint256"
        },
        {
          "internalType": "address",
          "name": "",
          "type": "address"
        }
      ],
      "name": "contributions",
      "outputs": [
        {
          "internalType": "uint256",
          "name": "",
          "type": "uint256"
        }
      ],
      "stateMutability": "view",
      "type": "function"
    },
    {
      "inputs": [
        {
          "internalType": "uint256",
          "name": "loanId",
          "type": "uint256"
        }
      ],
      "name": "fundLoan",
      "outputs": [],
      "stateMutability": "payable",
      "type": "function"
    },
    {
      "inputs": [
        {
          "internalType": "uint256",
          "name": "loanId",
          "type": "uint256"
        }
      ],
      "name": "getLenders",
      "outputs": [
        {
          "internalType": "address[]",
          "name": "",
          "type": "address[]"
        }
      ],
      "stateMutability": "view",
      "type": "function"
    },
    {
      "inputs": [
        {
          "internalType": "uint256",
          "name": "loanId",
          "type": "uint256"
        }
      ],
      "name": "getLoan",
      "outputs": [
        {
          "internalType": "address",
          "name": "borrower",
          "type": "address"
        },
        {
          "internalType": "uint256",
          "name": "amount",
          "type": "uint256"
        },
        {
          "internalType": "uint256",
          "name": "collateral",
          "type": "uint256"
        },
        {
          "internalType": "uint256",
          "name": "dueDate",
          "type": "uint256"
        },
        {
          "internalType": "bool",
          "name": "repaid",
          "type": "bool"
        },
        {
          "internalType": "bool",
          "name": "active",
          "type": "bool"
        },
        {
          "internalType": "uint8",
          "name": "riskCategory",
          "type": "uint8"
        }
      ],
      "stateMutability": "view",
      "type": "function"
    },
    {
      "inputs": [
        {
          "internalType": "uint256",
          "name": "loanId",
          "type": "uint256"
        },
        {
          "internalType": "address",
          "name": "lender",
          "type": "address"
        }
      ],
      "name": "getLoanContributions",
      "outputs": [
        {
          "internalType": "uint256",
          "name": "",
          "type": "uint256"
        }
      ],
      "stateMutability": "view",
      "type": "function"
    },
    {
      "inputs": [
        {
          "internalType": "uint256",
          "name": "loanId",
          "type": "uint256"
        }
      ],
      "name": "liquidateLoan",
      "outputs": [],
      "stateMutability": "nonpayable",
      "type": "function"
    },
    {
      "inputs": [],
      "name": "loanCounter",
      "outputs": [
        {
          "internalType": "uint256",
          "name": "",
          "type": "uint256"
        }
      ],
      "stateMutability": "view",
      "type": "function"
    },
    {
      "inputs": [
        {
          "internalType": "uint256",
          "name": "",
          "type": "uint256"
        }
      ],
      "name": "loans",
      "outputs": [
        {
          "internalType": "address",
          "name": "borrower",
          "type": "address"
        },
        {
          "internalType": "uint256",
          "name": "amount",
          "type": "uint256"
        },
        {
          "internalType": "uint256",
          "name": "collateral",
          "type": "uint256"
        },
        {
          "internalType": "uint256",
          "name": "dueDate",
          "type": "uint256"
        },
        {
          "internalType": "bool",
          "name": "repaid",
          "type": "bool"
        },
        {
          "internalType": "bool",
          "name": "active",
          "type": "bool"
        },
        {
          "internalType": "uint8",
          "name": "riskCategory",
          "type": "uint8"
        }
      ],
      "stateMutability": "view",
      "type": "function"
    },
    {
      "inputs": [],
      "name": "nftContract",
      "outputs": [
        {
          "internalType": "contract ReputationNFT",
          "name": "",
          "type": "address"
        }
      ],
      "stateMutability": "view",
      "type": "function"
    },
    {
      "inputs": [],
      "name": "owner",
      "outputs": [
        {
          "internalType": "address",
          "name": "",
          "type": "address"
        }
      ],
      "stateMutability": "view",
      "type": "function"
    },
    {
      "inputs": [],
      "name": "renounceOwnership",
      "outputs": [],
      "stateMutability": "nonpayable",
      "type": "function"
    },
    {
      "inputs": [
        {
          "internalType": "uint256",
          "name": "loanId",
          "type": "uint256"
        }
      ],
      "name": "repayLoan",
      "outputs": [],
      "stateMutability": "payable",
      "type": "function"
    },
    {
      "inputs": [
        {
          "internalType": "uint256",
          "name": "amount",
          "type": "uint256"
        },
        {
          "internalType": "uint256",
          "name": "duration",
          "type": "uint256"
        }
      ],
      "name": "requestLoan",
      "outputs": [],
      "stateMutability": "payable",
      "type": "function"
    },
    {
      "inputs": [
        {
          "internalType": "address",
          "name": "newOwner",
          "type": "address"
        }
      ],
      "name": "transferOwnership",
      "outputs": [],
      "stateMutability": "nonpayable",
      "type": "function"
    }
  ],
  "bytecode": "0x60806040523480156200001157600080fd5b506040516200265f3803806200265f8339818101604052810190620000379190620001d5565b620000576200004b6200009f60201b60201c565b620000a760201b60201c565b80600460006101000a81548173ffffffffffffffffffffffffffffffffffffffff021916908373ffffffffffffffffffffffffffffffffffffffff1602179055505062000207565b600033905090565b60008060009054906101000a900473ffffffffffffffffffffffffffffffffffffffff169050816000806101000a81548173ffffffffffffffffffffffffffffffffffffffff021916908373ffffffffffffffffffffffffffffffffffffffff1602179055508173ffffffffffffffffffffffffffffffffffffffff168173ffffffffffffffffffffffffffffffffffffffff167f8be0079c531659141344cd1fd0a4f28419497f9722a3daafe3b4186f6b6457e060405160405180910390a35050565b600080fd5b600073ffffffffffffffffffffffffffffffffffffffff82169050919050565b60006200019d8262000170565b9050919050565b620001af8162000190565b8114620001bb57600080fd5b50565b600081519050620001cf81620001a4565b92915050565b600060208284031215620001ee57620001ed6200016b565b5b6000620001fe84828501620001be565b91505092915050565b61244880620002176000396000f3fe6080604052600436106100dd5760003560e01c8063aa452fa61161007f578063d56d229d11610059578063d56d229d14610289578063e0f3c784146102b4578063e1ec3c68146102f1578063f2fde38b14610334576100dd565b8063aa452fa614610228578063ab7b1c8914610244578063ccdd9f5d14610260576100dd565b8063715018a6116100bb578063715018a61461018d57806374c05ba7146101a4578063846b909a146101e15780638da5cb5b146101fd576100dd565b806334d9289e146100e25780633d891f591461010d578063504006ca1461014a575b600080fd5b3480156100ee57600080fd5b506100f761035d565b60405161010491906116bf565b60405180910390f35b34801561011957600080fd5b50610134600480360381019061012f9190611769565b610363565b60405161014191906116bf565b60405180910390f35b34801561015657600080fd5b50610171600480360381019061016c91906117a9565b610388565b604051610184979695949392919061181c565b60405180910390f35b34801561019957600080fd5b506101a261042d565b005b3480156101b057600080fd5b506101cb60048036038101906101c691906117a9565b610441565b6040516101d89190611949565b60405180910390f35b6101fb60048036038101906101f691906117a9565b6104e5565b005b34801561020957600080fd5b506102126107f6565b60405161021f919061196b565b60405180910390f35b610242600480360381019061023d9190611986565b61081f565b005b61025e600480360381019061025991906117a9565b610a37565b005b34801561026c57600080fd5b50610287600480360381019061028291906117a9565b611084565b005b34801561029557600080fd5b5061029e6113cf565b6040516102ab9190611a25565b60405180910390f35b3480156102c057600080fd5b506102db60048036038101906102d69190611769565b6113f5565b6040516102e891906116bf565b60405180910390f35b3480156102fd57600080fd5b50610318600480360381019061031391906117a9565b611450565b60405161032b979695949392919061181c565b60405180910390f35b34801561034057600080fd5b5061035b60048036038101906103569190611a40565b6114d9565b005b60035481565b6002602052816000526040600020602052806000526040600020600091509150505481565b600080600080600080600080600160008a815260200190815260200160002090508060000160009054906101000a900473ffffffffffffffffffffffffffffffffffffffff168160010154826002015483600301548460040160009054906101000a900460ff168560040160019054906101000a900460ff168660060160009054906101000a900460ff16975097509750975097509750975050919395979092949650565b61043561155c565b61043f60006115da565b565b6060600160008381526020019081526020016000206005018054806020026020016040519081016040528092919081815260200182805480156104d957602002820191906000526020600020905b8160009054906101000a900473ffffffffffffffffffffffffffffffffffffffff1673ffffffffffffffffffffffffffffffffffffffff168152602001906001019080831161048f575b50505050509050919050565b60006001600083815260200190815260200160002090508060040160019054906101000a900460ff1661054d576040517f08c379a000000000000000000000000000000000000000000000000000000000815260040161054490611aca565b60405180910390fd5b60006002600084815260200190815260200160002060003373ffffffffffffffffffffffffffffffffffffffff1673ffffffffffffffffffffffffffffffffffffffff168152602001908152602001600020540361060b5780600501339080600181540180825580915050600190039060005260206000200160009091909190916101000a81548173ffffffffffffffffffffffffffffffffffffffff021916908373ffffffffffffffffffffffffffffffffffffffff1602179055505b346002600084815260200190815260200160002060003373ffffffffffffffffffffffffffffffffffffffff1673ffffffffffffffffffffffffffffffffffffffff168152602001908152602001600020600082825461066b9190611b19565b925050819055507fbd7ef6c6281278f6c8ac4ae9ef2f205b52425813c288dd47c377cb6b59c5076e8233346040516106a593929190611b4d565b60405180910390a1600080600090505b8260050180549050811015610775576002600085815260200190815260200160002060008460050183815481106106ef576106ee611b84565b5b9060005260206000200160009054906101000a900473ffffffffffffffffffffffffffffffffffffffff1673ffffffffffffffffffffffffffffffffffffffff1673ffffffffffffffffffffffffffffffffffffffff16815260200190815260200160002054826107609190611b19565b9150808061076d90611bb3565b9150506106b5565b50816001015481106107f1578160000160009054906101000a900473ffffffffffffffffffffffffffffffffffffffff1673ffffffffffffffffffffffffffffffffffffffff166108fc83600101549081150290604051600060405180830381858888f193505050501580156107ef573d6000803e3d6000fd5b505b505050565b60008060009054906101000a900473ffffffffffffffffffffffffffffffffffffffff16905090565b60008211610862576040517f08c379a000000000000000000000000000000000000000000000000000000000815260040161085990611c47565b60405180910390fd5b6000826064346108729190611c67565b61087c9190611cd8565b9050600a8110156108c2576040517f08c379a00000000000000000000000000000000000000000000000000000000081526004016108b990611d55565b60405180910390fd5b6000603282106108d557600190506108fe565b602382106108e657600290506108fd565b601482106108f757600390506108fc565b600490505b5b5b60006001600060035481526020019081526020016000209050338160000160006101000a81548173ffffffffffffffffffffffffffffffffffffffff021916908373ffffffffffffffffffffffffffffffffffffffff16021790555084816001018190555034816002018190555083426109789190611b19565b816003018190555060008160040160006101000a81548160ff02191690831515021790555060018160040160016101000a81548160ff021916908315150217905550818160060160006101000a81548160ff021916908360ff1602179055507fa7c4654f8a806ab66330000995b6ab78d171b59826ce9e6ef0105f01d1b10dad60035433873486604051610a10959493929190611d75565b60405180910390a160036000815480929190610a2b90611bb3565b91905055505050505050565b60006001600083815260200190815260200160002090508060000160009054906101000a900473ffffffffffffffffffffffffffffffffffffffff1673ffffffffffffffffffffffffffffffffffffffff163373ffffffffffffffffffffffffffffffffffffffff1614610ae0576040517f08c379a0000000000000000000000000000000000000000000000000000000008152600401610ad790611e14565b60405180910390fd5b8060040160019054906101000a900460ff16610b31576040517f08c379a0000000000000000000000000000000000000000000000000000000008152600401610b2890611aca565b60405180910390fd5b8060040160009054906101000a900460ff1615610b83576040517f08c379a0000000000000000000000000000000000000000000000000000000008152600401610b7a90611e80565b60405180910390fd5b8060030154421115610bca576040517f08c379a0000000000000000000000000000000000000000000000000000000008152600401610bc190611eec565b60405180910390fd5b600060028260060160009054906101000a900460ff16610bea9190611f0c565b6064610bf69190611f49565b60ff16905060006064828460010154610c0f9190611c67565b610c199190611cd8565b905080341015610c5e576040517f08c379a0000000000000000000000000000000000000000000000000000000008152600401610c5590611fca565b60405180910390fd5b60005b8360050180549050811015610d86576000846005018281548110610c8857610c87611b84565b5b9060005260206000200160009054906101000a900473ffffffffffffffffffffffffffffffffffffffff16905060006002600088815260200190815260200160002060008373ffffffffffffffffffffffffffffffffffffffff1673ffffffffffffffffffffffffffffffffffffffff168152602001908152602001600020549050600086600101548286610d1d9190611c67565b610d279190611cd8565b90508273ffffffffffffffffffffffffffffffffffffffff166108fc829081150290604051600060405180830381858888f19350505050158015610d6f573d6000803e3d6000fd5b505050508080610d7e90611bb3565b915050610c61565b5060018360040160006101000a81548160ff02191690831515021790555060008360040160016101000a81548160ff0219169083151502179055508260000160009054906101000a900473ffffffffffffffffffffffffffffffffffffffff1673ffffffffffffffffffffffffffffffffffffffff166108fc84600201549081150290604051600060405180830381858888f19350505050158015610e2f573d6000803e3d6000fd5b507f9a7851747cd7ffb3fe0a32caf3da48b31f27cebe131267051640f8b72fc4718684604051610e5f91906116bf565b60405180910390a1600460009054906101000a900473ffffffffffffffffffffffffffffffffffffffff1673ffffffffffffffffffffffffffffffffffffffff166338e21cce336040518263ffffffff1660e01b8152600401610ec2919061196b565b602060405180830381865afa158015610edf573d6000803e3d6000fd5b505050506040513d601f19601f82011682018060405250810190610f039190612016565b61107e57606060018460060160009054906101000a900460ff1660ff1603610f455760405180608001604052806042815260200161238f604291399050610fdb565b60028460060160009054906101000a900460ff1660ff1603610f815760405180608001604052806042815260200161230b604291399050610fda565b60038460060160009054906101000a900460ff1660ff1603610fbd576040518060800160405280604281526020016123d1604291399050610fd9565b60405180608001604052806042815260200161234d6042913990505b5b5b600460009054906101000a900473ffffffffffffffffffffffffffffffffffffffff1673ffffffffffffffffffffffffffffffffffffffff1663d0def52133836040518363ffffffff1660e01b81526004016110389291906120c2565b6020604051808303816000875af1158015611057573d6000803e3d6000fd5b505050506040513d601f19601f8201168201806040525081019061107b9190612107565b50505b50505050565b6000600160008381526020019081526020016000209050806003015442116110e1576040517f08c379a00000000000000000000000000000000000000000000000000000000081526004016110d890612180565b60405180910390fd5b8060040160009054906101000a900460ff1615611133576040517f08c379a000000000000000000000000000000000000000000000000000000000815260040161112a90611e80565b60405180910390fd5b8060040160019054906101000a900460ff16611184576040517f08c379a000000000000000000000000000000000000000000000000000000000815260040161117b906121ec565b60405180910390fd5b60008160040160016101000a81548160ff021916908315150217905550600080600090505b8260050180549050811015611269576002600085815260200190815260200160002060008460050183815481106111e3576111e2611b84565b5b9060005260206000200160009054906101000a900473ffffffffffffffffffffffffffffffffffffffff1673ffffffffffffffffffffffffffffffffffffffff1673ffffffffffffffffffffffffffffffffffffffff16815260200190815260200160002054826112549190611b19565b9150808061126190611bb3565b9150506111a9565b5060005b826005018054905081101561139257600083600501828154811061129457611293611b84565b5b9060005260206000200160009054906101000a900473ffffffffffffffffffffffffffffffffffffffff16905060006002600087815260200190815260200160002060008373ffffffffffffffffffffffffffffffffffffffff1673ffffffffffffffffffffffffffffffffffffffff1681526020019081526020016000205490506000848287600201546113299190611c67565b6113339190611cd8565b90508273ffffffffffffffffffffffffffffffffffffffff166108fc829081150290604051600060405180830381858888f1935050505015801561137b573d6000803e3d6000fd5b50505050808061138a90611bb3565b91505061126d565b507faf91ffe368225045d42f7c2b4b90feb438133ac1e375e73bc9066652b70a1d77836040516113c291906116bf565b60405180910390a1505050565b600460009054906101000a900473ffffffffffffffffffffffffffffffffffffffff1681565b60006002600084815260200190815260200160002060008373ffffffffffffffffffffffffffffffffffffffff1673ffffffffffffffffffffffffffffffffffffffff16815260200190815260200160002054905092915050565b60016020528060005260406000206000915090508060000160009054906101000a900473ffffffffffffffffffffffffffffffffffffffff16908060010154908060020154908060030154908060040160009054906101000a900460ff16908060040160019054906101000a900460ff16908060060160009054906101000a900460ff16905087565b6114e161155c565b600073ffffffffffffffffffffffffffffffffffffffff168173ffffffffffffffffffffffffffffffffffffffff1603611550576040517f08c379a00000000000000000000000000000000000000000000000000000000081526004016115479061227e565b60405180910390fd5b611559816115da565b50565b61156461169e565b73ffffffffffffffffffffffffffffffffffffffff166115826107f6565b73ffffffffffffffffffffffffffffffffffffffff16146115d8576040517f08c379a00000000000000000000000000000000000000000000000000000000081526004016115cf906122ea565b60405180910390fd5b565b60008060009054906101000a900473ffffffffffffffffffffffffffffffffffffffff169050816000806101000a81548173ffffffffffffffffffffffffffffffffffffffff021916908373ffffffffffffffffffffffffffffffffffffffff1602179055508173ffffffffffffffffffffffffffffffffffffffff168173ffffffffffffffffffffffffffffffffffffffff167f8be0079c531659141344cd1fd0a4f28419497f9722a3daafe3b4186f6b6457e060405160405180910390a35050565b600033905090565b6000819050919050565b6116b9816116a6565b82525050565b60006020820190506116d460008301846116b0565b92915050565b600080fd5b6116e8816116a6565b81146116f357600080fd5b50565b600081359050611705816116df565b92915050565b600073ffffffffffffffffffffffffffffffffffffffff82169050919050565b60006117368261170b565b9050919050565b6117468161172b565b811461175157600080fd5b50565b6000813590506117638161173d565b92915050565b600080604083850312156117805761177f6116da565b5b600061178e858286016116f6565b925050602061179f85828601611754565b9150509250929050565b6000602082840312156117bf576117be6116da565b5b60006117cd848285016116f6565b91505092915050565b6117df8161172b565b82525050565b60008115159050919050565b6117fa816117e5565b82525050565b600060ff82169050919050565b61181681611800565b82525050565b600060e082019050611831600083018a6117d6565b61183e60208301896116b0565b61184b60408301886116b0565b61185860608301876116b0565b61186560808301866117f1565b61187260a08301856117f1565b61187f60c083018461180d565b98975050505050505050565b600081519050919050565b600082825260208201905092915050565b6000819050602082019050919050565b6118c08161172b565b82525050565b60006118d283836118b7565b60208301905092915050565b6000602082019050919050565b60006118f68261188b565b6119008185611896565b935061190b836118a7565b8060005b8381101561193c57815161192388826118c6565b975061192e836118de565b92505060018101905061190f565b5085935050505092915050565b6000602082019050818103600083015261196381846118eb565b905092915050565b600060208201905061198060008301846117d6565b92915050565b6000806040838503121561199d5761199c6116da565b5b60006119ab858286016116f6565b92505060206119bc858286016116f6565b9150509250929050565b6000819050919050565b60006119eb6119e66119e18461170b565b6119c6565b61170b565b9050919050565b60006119fd826119d0565b9050919050565b6000611a0f826119f2565b9050919050565b611a1f81611a04565b82525050565b6000602082019050611a3a6000830184611a16565b92915050565b600060208284031215611a5657611a556116da565b5b6000611a6484828501611754565b91505092915050565b600082825260208201905092915050565b7f4c6f616e20696e61637469766500000000000000000000000000000000000000600082015250565b6000611ab4600d83611a6d565b9150611abf82611a7e565b602082019050919050565b60006020820190508181036000830152611ae381611aa7565b9050919050565b7f4e487b7100000000000000000000000000000000000000000000000000000000600052601160045260246000fd5b6000611b24826116a6565b9150611b2f836116a6565b9250828201905080821115611b4757611b46611aea565b5b92915050565b6000606082019050611b6260008301866116b0565b611b6f60208301856117d6565b611b7c60408301846116b0565b949350505050565b7f4e487b7100000000000000000000000000000000000000000000000000000000600052603260045260246000fd5b6000611bbe826116a6565b91507fffffffffffffffffffffffffffffffffffffffffffffffffffffffffffffffff8203611bf057611bef611aea565b5b600182019050919050565b7f4c6f616e20616d6f756e74206d75737420626520706f73697469766500000000600082015250565b6000611c31601c83611a6d565b9150611c3c82611bfb565b602082019050919050565b60006020820190508181036000830152611c6081611c24565b9050919050565b6000611c72826116a6565b9150611c7d836116a6565b9250828202611c8b816116a6565b91508282048414831517611ca257611ca1611aea565b5b5092915050565b7f4e487b7100000000000000000000000000000000000000000000000000000000600052601260045260246000fd5b6000611ce3826116a6565b9150611cee836116a6565b925082611cfe57611cfd611ca9565b5b828204905092915050565b7f4174206c656173742031302520636f6c6c61746572616c207265717569726564600082015250565b6000611d3f602083611a6d565b9150611d4a82611d09565b602082019050919050565b60006020820190508181036000830152611d6e81611d32565b9050919050565b600060a082019050611d8a60008301886116b0565b611d9760208301876117d6565b611da460408301866116b0565b611db160608301856116b0565b611dbe608083018461180d565b9695505050505050565b7f4e6f7420626f72726f7765720000000000000000000000000000000000000000600082015250565b6000611dfe600c83611a6d565b9150611e0982611dc8565b602082019050919050565b60006020820190508181036000830152611e2d81611df1565b9050919050565b7f416c726561647920726570616964000000000000000000000000000000000000600082015250565b6000611e6a600e83611a6d565b9150611e7582611e34565b602082019050919050565b60006020820190508181036000830152611e9981611e5d565b9050919050565b7f4c6f616e206f7665726475650000000000000000000000000000000000000000600082015250565b6000611ed6600c83611a6d565b9150611ee182611ea0565b602082019050919050565b60006020820190508181036000830152611f0581611ec9565b9050919050565b6000611f1782611800565b9150611f2283611800565b9250828202611f3081611800565b9150808214611f4257611f41611aea565b5b5092915050565b6000611f5482611800565b9150611f5f83611800565b9250828201905060ff811115611f7857611f77611aea565b5b92915050565b7f496e73756666696369656e742072657061796d656e7400000000000000000000600082015250565b6000611fb4601683611a6d565b9150611fbf82611f7e565b602082019050919050565b60006020820190508181036000830152611fe381611fa7565b9050919050565b611ff3816117e5565b8114611ffe57600080fd5b50565b60008151905061201081611fea565b92915050565b60006020828403121561202c5761202b6116da565b5b600061203a84828501612001565b91505092915050565b600081519050919050565b60005b8381101561206c578082015181840152602081019050612051565b60008484015250505050565b6000601f19601f8301169050919050565b600061209482612043565b61209e8185611a6d565b93506120ae81856020860161204e565b6120b781612078565b840191505092915050565b60006040820190506120d760008301856117d6565b81810360208301526120e98184612089565b90509392505050565b600081519050612101816116df565b92915050565b60006020828403121561211d5761211c6116da565b5b600061212b848285016120f2565b91505092915050565b7f4c6f616e206e6f74206f76657264756500000000000000000000000000000000600082015250565b600061216a601083611a6d565b915061217582612134565b602082019050919050565b600060208201905081810360008301526121998161215d565b9050919050565b7f4c6f616e206e6f74206163746976650000000000000000000000000000000000600082015250565b60006121d6600f83611a6d565b91506121e1826121a0565b602082019050919050565b60006020820190508181036000830152612205816121c9565b9050919050565b7f4f776e61626c653a206e6577206f776e657220697320746865207a65726f206160008201527f6464726573730000000000000000000000000000000000000000000000000000602082015250565b6000612268602683611a6d565b91506122738261220c565b604082019050919050565b600060208201905081810360008301526122978161225b565b9050919050565b7f4f776e61626c653a2063616c6c6572206973206e6f7420746865206f776e6572600082015250565b60006122d4602083611a6d565b91506122df8261229e565b602082019050919050565b60006020820190508181036000830152612303816122c7565b905091905056fe697066733a2f2f6261666b7265696562376e36373474336170626167796932746a64707964776f636b75726835616f7637326566736a7a6d6b696f77706a61326e69697066733a2f2f6261666b726569686a7968756670706c676565696b353366366e73797a696837686f6c786b7a37336476756b6b33626f63747068337377616c6a71697066733a2f2f6261666b726569626777663476776f6f32666436636f64376e3436756c7a76756c62356734796873726e64707a7266657a34716a79707a68617375697066733a2f2f6261666b726569677161667664376c64626871367561746a3536727277786e6e663766346e356f6a33646d787436626f6a66646671743773743634a26469706673582212205b319b30c2c1c5fde7f2a6eec434534e840329d7035d96ca55591dc714b82b5864736f6c63430008140033",
  "linkReferences": {},
  "deployedLinkReferences": {}
}