{
  "_format": "hh-sol-artifact-1",
  "contractName": "LoanContract",
  "sourceName": "contracts/FinFlow.sol",
  "abi": [
    {
      "inputs": [
        {
          "internalType": "address",
          "name": "_nftAddress",
          "type": "address"
        }
      ],
      "stateMutability": "nonpayable",
      "type": "constructor"
    },
    {
      "anonymous": false,
      "inputs": [
        {
          "indexed": false,
          "internalType": "uint256",
          "name": "loanId",
          "type": "uint256"
        },
        {
          "indexed": false,
          "internalType": "address",
          "name": "lender",
          "type": "address"
        },
        {
          "indexed": false,
          "internalType": "uint256",
          "name": "amount",
          "type": "uint256"
        }
      ],
      "name": "LoanFunded",
      "type": "event"
    },
    {
      "anonymous": false,
      "inputs": [
        {
          "indexed": false,
          "internalType": "uint256",
          "name": "loanId",
          "type": "uint256"
        }
      ],
      "name": "LoanLiquidated",
      "type": "event"
    },
    {
      "anonymous": false,
      "inputs": [
        {
          "indexed": false,
          "internalType": "uint256",
          "name": "loanId",
          "type": "uint256"
        }
      ],
      "name": "LoanRepaid",
      "type": "event"
    },
    {
      "anonymous": false,
      "inputs": [
        {
          "indexed": false,
          "internalType": "uint256",
          "name": "loanId",
          "type": "uint256"
        },
        {
          "indexed": false,
          "internalType": "address",
          "name": "borrower",
          "type": "address"
        },
        {
          "indexed": false,
          "internalType": "uint256",
          "name": "amount",
          "type": "uint256"
        },
        {
          "indexed": false,
          "internalType": "uint256",
          "name": "collateral",
          "type": "uint256"
        },
        {
          "indexed": false,
          "internalType": "uint8",
          "name": "riskCategory",
          "type": "uint8"
        }
      ],
      "name": "LoanRequested",
      "type": "event"
    },
    {
      "anonymous": false,
      "inputs": [
        {
          "indexed": true,
          "internalType": "address",
          "name": "previousOwner",
          "type": "address"
        },
        {
          "indexed": true,
          "internalType": "address",
          "name": "newOwner",
          "type": "address"
        }
      ],
      "name": "OwnershipTransferred",
      "type": "event"
    },
    {
      "inputs": [
        {
          "internalType": "uint256",
          "name": "",
          "type": "uint256"
        },
        {
          "internalType": "address",
          "name": "",
          "type": "address"
        }
      ],
      "name": "contributions",
      "outputs": [
        {
          "internalType": "uint256",
          "name": "",
          "type": "uint256"
        }
      ],
      "stateMutability": "view",
      "type": "function"
    },
    {
      "inputs": [
        {
          "internalType": "uint256",
          "name": "loanId",
          "type": "uint256"
        }
      ],
      "name": "fundLoan",
      "outputs": [],
      "stateMutability": "payable",
      "type": "function"
    },
    {
      "inputs": [
        {
          "internalType": "uint256",
          "name": "loanId",
          "type": "uint256"
        }
      ],
      "name": "getLenders",
      "outputs": [
        {
          "internalType": "address[]",
          "name": "",
          "type": "address[]"
        }
      ],
      "stateMutability": "view",
      "type": "function"
    },
    {
      "inputs": [
        {
          "internalType": "uint256",
          "name": "loanId",
          "type": "uint256"
        }
      ],
      "name": "getLoan",
      "outputs": [
        {
          "internalType": "address",
          "name": "borrower",
          "type": "address"
        },
        {
          "internalType": "uint256",
          "name": "amount",
          "type": "uint256"
        },
        {
          "internalType": "uint256",
          "name": "collateral",
          "type": "uint256"
        },
        {
          "internalType": "uint256",
          "name": "dueDate",
          "type": "uint256"
        },
        {
          "internalType": "bool",
          "name": "repaid",
          "type": "bool"
        },
        {
          "internalType": "bool",
          "name": "active",
          "type": "bool"
        },
        {
          "internalType": "uint8",
          "name": "riskCategory",
          "type": "uint8"
        }
      ],
      "stateMutability": "view",
      "type": "function"
    },
    {
      "inputs": [
        {
          "internalType": "uint256",
          "name": "loanId",
          "type": "uint256"
        },
        {
          "internalType": "address",
          "name": "lender",
          "type": "address"
        }
      ],
      "name": "getLoanContributions",
      "outputs": [
        {
          "internalType": "uint256",
          "name": "",
          "type": "uint256"
        }
      ],
      "stateMutability": "view",
      "type": "function"
    },
    {
      "inputs": [
        {
          "internalType": "uint256",
          "name": "loanId",
          "type": "uint256"
        }
      ],
      "name": "getRepaidAmount",
      "outputs": [
        {
          "internalType": "uint256",
          "name": "",
          "type": "uint256"
        }
      ],
      "stateMutability": "view",
      "type": "function"
    },
    {
      "inputs": [
        {
          "internalType": "uint256",
          "name": "loanId",
          "type": "uint256"
        }
      ],
      "name": "getTotalContributions",
      "outputs": [
        {
          "internalType": "uint256",
          "name": "total",
          "type": "uint256"
        }
      ],
      "stateMutability": "view",
      "type": "function"
    },
    {
      "inputs": [
        {
          "internalType": "uint256",
          "name": "loanId",
          "type": "uint256"
        }
      ],
      "name": "liquidateLoan",
      "outputs": [],
      "stateMutability": "nonpayable",
      "type": "function"
    },
    {
      "inputs": [],
      "name": "loanCounter",
      "outputs": [
        {
          "internalType": "uint256",
          "name": "",
          "type": "uint256"
        }
      ],
      "stateMutability": "view",
      "type": "function"
    },
    {
      "inputs": [
        {
          "internalType": "uint256",
          "name": "",
          "type": "uint256"
        }
      ],
      "name": "loans",
      "outputs": [
        {
          "internalType": "address",
          "name": "borrower",
          "type": "address"
        },
        {
          "internalType": "uint256",
          "name": "amount",
          "type": "uint256"
        },
        {
          "internalType": "uint256",
          "name": "collateral",
          "type": "uint256"
        },
        {
          "internalType": "uint256",
          "name": "dueDate",
          "type": "uint256"
        },
        {
          "internalType": "bool",
          "name": "repaid",
          "type": "bool"
        },
        {
          "internalType": "bool",
          "name": "active",
          "type": "bool"
        },
        {
          "internalType": "uint8",
          "name": "riskCategory",
          "type": "uint8"
        },
        {
          "internalType": "uint256",
          "name": "repaidAmount",
          "type": "uint256"
        }
      ],
      "stateMutability": "view",
      "type": "function"
    },
    {
      "inputs": [],
      "name": "nftContract",
      "outputs": [
        {
          "internalType": "contract ReputationNFT",
          "name": "",
          "type": "address"
        }
      ],
      "stateMutability": "view",
      "type": "function"
    },
    {
      "inputs": [],
      "name": "owner",
      "outputs": [
        {
          "internalType": "address",
          "name": "",
          "type": "address"
        }
      ],
      "stateMutability": "view",
      "type": "function"
    },
    {
      "inputs": [],
      "name": "renounceOwnership",
      "outputs": [],
      "stateMutability": "nonpayable",
      "type": "function"
    },
    {
      "inputs": [
        {
          "internalType": "uint256",
          "name": "loanId",
          "type": "uint256"
        }
      ],
      "name": "repayLoan",
      "outputs": [],
      "stateMutability": "payable",
      "type": "function"
    },
    {
      "inputs": [
        {
          "internalType": "uint256",
          "name": "amount",
          "type": "uint256"
        },
        {
          "internalType": "uint256",
          "name": "duration",
          "type": "uint256"
        }
      ],
      "name": "requestLoan",
      "outputs": [],
      "stateMutability": "payable",
      "type": "function"
    },
    {
      "inputs": [
        {
          "internalType": "address",
          "name": "newOwner",
          "type": "address"
        }
      ],
      "name": "transferOwnership",
      "outputs": [],
      "stateMutability": "nonpayable",
      "type": "function"
    }
  ],
  "bytecode": "0x60806040523480156200001157600080fd5b5060405162002d9538038062002d958339818101604052810190620000379190620001d5565b620000576200004b6200009f60201b60201c565b620000a760201b60201c565b80600460006101000a81548173ffffffffffffffffffffffffffffffffffffffff021916908373ffffffffffffffffffffffffffffffffffffffff1602179055505062000207565b600033905090565b60008060009054906101000a900473ffffffffffffffffffffffffffffffffffffffff169050816000806101000a81548173ffffffffffffffffffffffffffffffffffffffff021916908373ffffffffffffffffffffffffffffffffffffffff1602179055508173ffffffffffffffffffffffffffffffffffffffff168173ffffffffffffffffffffffffffffffffffffffff167f8be0079c531659141344cd1fd0a4f28419497f9722a3daafe3b4186f6b6457e060405160405180910390a35050565b600080fd5b600073ffffffffffffffffffffffffffffffffffffffff82169050919050565b60006200019d8262000170565b9050919050565b620001af8162000190565b8114620001bb57600080fd5b50565b600081519050620001cf81620001a4565b92915050565b600060208284031215620001ee57620001ed6200016b565b5b6000620001fe84828501620001be565b91505092915050565b612b7e80620002176000396000f3fe6080604052600436106100f35760003560e01c80638da5cb5b1161008a578063d56d229d11610059578063d56d229d14610319578063e0f3c78414610344578063e1ec3c6814610381578063f2fde38b146103c5576100f3565b80638da5cb5b1461028d578063aa452fa6146102b8578063ab7b1c89146102d4578063ccdd9f5d146102f0576100f3565b80635bd1baaf116100c65780635bd1baaf146101e0578063715018a61461021d57806374c05ba714610234578063846b909a14610271576100f3565b806327706ae5146100f857806334d9289e146101355780633d891f5914610160578063504006ca1461019d575b600080fd5b34801561010457600080fd5b5061011f600480360381019061011a9190611b7d565b6103ee565b60405161012c9190611bb9565b60405180910390f35b34801561014157600080fd5b5061014a61040e565b6040516101579190611bb9565b60405180910390f35b34801561016c57600080fd5b5061018760048036038101906101829190611c32565b610414565b6040516101949190611bb9565b60405180910390f35b3480156101a957600080fd5b506101c460048036038101906101bf9190611b7d565b610439565b6040516101d79796959493929190611cb8565b60405180910390f35b3480156101ec57600080fd5b5061020760048036038101906102029190611b7d565b6104de565b6040516102149190611bb9565b60405180910390f35b34801561022957600080fd5b5061023261061c565b005b34801561024057600080fd5b5061025b60048036038101906102569190611b7d565b610630565b6040516102689190611de5565b60405180910390f35b61028b60048036038101906102869190611b7d565b6106d4565b005b34801561029957600080fd5b506102a2610b54565b6040516102af9190611e07565b60405180910390f35b6102d260048036038101906102cd9190611e22565b610b7d565b005b6102ee60048036038101906102e99190611b7d565b610d95565b005b3480156102fc57600080fd5b5061031760048036038101906103129190611b7d565b61151a565b005b34801561032557600080fd5b5061032e611865565b60405161033b9190611ec1565b60405180910390f35b34801561035057600080fd5b5061036b60048036038101906103669190611c32565b61188b565b6040516103789190611bb9565b60405180910390f35b34801561038d57600080fd5b506103a860048036038101906103a39190611b7d565b6118e6565b6040516103bc989796959493929190611edc565b60405180910390f35b3480156103d157600080fd5b506103ec60048036038101906103e79190611f5a565b611975565b005b600060016000838152602001908152602001600020600701549050919050565b60035481565b6002602052816000526040600020602052806000526040600020600091509150505481565b600080600080600080600080600160008a815260200190815260200160002090508060000160009054906101000a900473ffffffffffffffffffffffffffffffffffffffff168160010154826002015483600301548460040160009054906101000a900460ff168560040160019054906101000a900460ff168660060160009054906101000a900460ff16975097509750975097509750975050919395979092949650565b6000806001600084815260200190815260200160002060050180548060200260200160405190810160405280929190818152602001828054801561057757602002820191906000526020600020905b8160009054906101000a900473ffffffffffffffffffffffffffffffffffffffff1673ffffffffffffffffffffffffffffffffffffffff168152602001906001019080831161052d575b5050505050905060005b8151811015610615576002600085815260200190815260200160002060008383815181106105b2576105b1611f87565b5b602002602001015173ffffffffffffffffffffffffffffffffffffffff1673ffffffffffffffffffffffffffffffffffffffff16815260200190815260200160002054836106009190611fe5565b9250808061060d90612019565b915050610581565b5050919050565b6106246119f8565b61062e6000611a76565b565b6060600160008381526020019081526020016000206005018054806020026020016040519081016040528092919081815260200182805480156106c857602002820191906000526020600020905b8160009054906101000a900473ffffffffffffffffffffffffffffffffffffffff1673ffffffffffffffffffffffffffffffffffffffff168152602001906001019080831161067e575b50505050509050919050565b60006001600083815260200190815260200160002090508060040160019054906101000a900460ff1661073c576040517f08c379a0000000000000000000000000000000000000000000000000000000008152600401610733906120be565b60405180910390fd5b8060040160009054906101000a900460ff161561078e576040517f08c379a00000000000000000000000000000000000000000000000000000000081526004016107859061212a565b60405180910390fd5b80600301544211156107d5576040517f08c379a00000000000000000000000000000000000000000000000000000000081526004016107cc90612196565b60405180910390fd5b600080600090505b826005018054905081101561089d5760026000858152602001908152602001600020600084600501838154811061081757610816611f87565b5b9060005260206000200160009054906101000a900473ffffffffffffffffffffffffffffffffffffffff1673ffffffffffffffffffffffffffffffffffffffff1673ffffffffffffffffffffffffffffffffffffffff16815260200190815260200160002054826108889190611fe5565b9150808061089590612019565b9150506107dd565b506000818360010154116108b25760006108c3565b8183600101546108c291906121b6565b5b905060008111610908576040517f08c379a00000000000000000000000000000000000000000000000000000000081526004016108ff90612236565b60405180910390fd5b60008134116109175734610919565b815b905060006002600087815260200190815260200160002060003373ffffffffffffffffffffffffffffffffffffffff1673ffffffffffffffffffffffffffffffffffffffff16815260200190815260200160002054036109d95783600501339080600181540180825580915050600190039060005260206000200160009091909190916101000a81548173ffffffffffffffffffffffffffffffffffffffff021916908373ffffffffffffffffffffffffffffffffffffffff1602179055505b806002600087815260200190815260200160002060003373ffffffffffffffffffffffffffffffffffffffff1673ffffffffffffffffffffffffffffffffffffffff1681526020019081526020016000206000828254610a399190611fe5565b925050819055507fbd7ef6c6281278f6c8ac4ae9ef2f205b52425813c288dd47c377cb6b59c5076e853383604051610a7393929190612256565b60405180910390a180341115610ad6573373ffffffffffffffffffffffffffffffffffffffff166108fc8234610aa991906121b6565b9081150290604051600060405180830381858888f19350505050158015610ad4573d6000803e3d6000fd5b505b818103610b4d578360000160009054906101000a900473ffffffffffffffffffffffffffffffffffffffff1673ffffffffffffffffffffffffffffffffffffffff166108fc85600101549081150290604051600060405180830381858888f19350505050158015610b4b573d6000803e3d6000fd5b505b5050505050565b60008060009054906101000a900473ffffffffffffffffffffffffffffffffffffffff16905090565b60008211610bc0576040517f08c379a0000000000000000000000000000000000000000000000000000000008152600401610bb7906122d9565b60405180910390fd5b600082606434610bd091906122f9565b610bda919061236a565b9050600a811015610c20576040517f08c379a0000000000000000000000000000000000000000000000000000000008152600401610c17906123e7565b60405180910390fd5b600060328210610c335760019050610c5c565b60238210610c445760029050610c5b565b60148210610c555760039050610c5a565b600490505b5b5b60006001600060035481526020019081526020016000209050338160000160006101000a81548173ffffffffffffffffffffffffffffffffffffffff021916908373ffffffffffffffffffffffffffffffffffffffff1602179055508481600101819055503481600201819055508342610cd69190611fe5565b816003018190555060008160040160006101000a81548160ff02191690831515021790555060018160040160016101000a81548160ff021916908315150217905550818160060160006101000a81548160ff021916908360ff1602179055507fa7c4654f8a806ab66330000995b6ab78d171b59826ce9e6ef0105f01d1b10dad60035433873486604051610d6e959493929190612407565b60405180910390a160036000815480929190610d8990612019565b91905055505050505050565b60006001600083815260200190815260200160002090508060000160009054906101000a900473ffffffffffffffffffffffffffffffffffffffff1673ffffffffffffffffffffffffffffffffffffffff163373ffffffffffffffffffffffffffffffffffffffff1614610e3e576040517f08c379a0000000000000000000000000000000000000000000000000000000008152600401610e35906124a6565b60405180910390fd5b8060040160019054906101000a900460ff16610e8f576040517f08c379a0000000000000000000000000000000000000000000000000000000008152600401610e86906120be565b60405180910390fd5b8060040160009054906101000a900460ff1615610ee1576040517f08c379a0000000000000000000000000000000000000000000000000000000008152600401610ed89061212a565b60405180910390fd5b8060030154421115610f28576040517f08c379a0000000000000000000000000000000000000000000000000000000008152600401610f1f90612512565b60405180910390fd5b600080600090505b8260050180549050811015610ff057600260008581526020019081526020016000206000846005018381548110610f6a57610f69611f87565b5b9060005260206000200160009054906101000a900473ffffffffffffffffffffffffffffffffffffffff1673ffffffffffffffffffffffffffffffffffffffff1673ffffffffffffffffffffffffffffffffffffffff1681526020019081526020016000205482610fdb9190611fe5565b91508080610fe890612019565b915050610f30565b508160010154811015611038576040517f08c379a000000000000000000000000000000000000000000000000000000000815260040161102f9061257e565b60405180910390fd5b6000341161107b576040517f08c379a0000000000000000000000000000000000000000000000000000000008152600401611072906125ea565b60405180910390fd5b600060028360060160009054906101000a900460ff1661109b919061260a565b60646110a79190612647565b60ff169050600060648285600101546110c091906122f9565b6110ca919061236a565b9050348460070160008282546110e09190611fe5565b92505081905550808460070154106115135760018460040160006101000a81548160ff02191690831515021790555060008460040160016101000a81548160ff02191690831515021790555060005b846005018054905081101561125457600085600501828154811061115657611155611f87565b5b9060005260206000200160009054906101000a900473ffffffffffffffffffffffffffffffffffffffff16905060006002600089815260200190815260200160002060008373ffffffffffffffffffffffffffffffffffffffff1673ffffffffffffffffffffffffffffffffffffffff1681526020019081526020016000205490506000876001015482866111eb91906122f9565b6111f5919061236a565b90508273ffffffffffffffffffffffffffffffffffffffff166108fc829081150290604051600060405180830381858888f1935050505015801561123d573d6000803e3d6000fd5b50505050808061124c90612019565b91505061112f565b508360000160009054906101000a900473ffffffffffffffffffffffffffffffffffffffff1673ffffffffffffffffffffffffffffffffffffffff166108fc85600201549081150290604051600060405180830381858888f193505050501580156112c3573d6000803e3d6000fd5b507f9a7851747cd7ffb3fe0a32caf3da48b31f27cebe131267051640f8b72fc47186856040516112f39190611bb9565b60405180910390a1600460009054906101000a900473ffffffffffffffffffffffffffffffffffffffff1673ffffffffffffffffffffffffffffffffffffffff166338e21cce336040518263ffffffff1660e01b81526004016113569190611e07565b602060405180830381865afa158015611373573d6000803e3d6000fd5b505050506040513d601f19601f8201168201806040525081019061139791906126a8565b61151257606060018560060160009054906101000a900460ff1660ff16036113d957604051806080016040528060508152602001612aa960509139905061146f565b60028560060160009054906101000a900460ff1660ff160361141557604051806080016040528060508152602001612a5960509139905061146e565b60038560060160009054906101000a900460ff1660ff160361145157604051806080016040528060508152602001612a0960509139905061146d565b604051806080016040528060508152602001612af96050913990505b5b5b600460009054906101000a900473ffffffffffffffffffffffffffffffffffffffff1673ffffffffffffffffffffffffffffffffffffffff1663d0def52133836040518363ffffffff1660e01b81526004016114cc929190612754565b6020604051808303816000875af11580156114eb573d6000803e3d6000fd5b505050506040513d601f19601f8201168201806040525081019061150f9190612799565b50505b5b5050505050565b600060016000838152602001908152602001600020905080600301544211611577576040517f08c379a000000000000000000000000000000000000000000000000000000000815260040161156e90612812565b60405180910390fd5b8060040160009054906101000a900460ff16156115c9576040517f08c379a00000000000000000000000000000000000000000000000000000000081526004016115c09061287e565b60405180910390fd5b8060040160019054906101000a900460ff1661161a576040517f08c379a0000000000000000000000000000000000000000000000000000000008152600401611611906128ea565b60405180910390fd5b60008160040160016101000a81548160ff021916908315150217905550600080600090505b82600501805490508110156116ff5760026000858152602001908152602001600020600084600501838154811061167957611678611f87565b5b9060005260206000200160009054906101000a900473ffffffffffffffffffffffffffffffffffffffff1673ffffffffffffffffffffffffffffffffffffffff1673ffffffffffffffffffffffffffffffffffffffff16815260200190815260200160002054826116ea9190611fe5565b915080806116f790612019565b91505061163f565b5060005b826005018054905081101561182857600083600501828154811061172a57611729611f87565b5b9060005260206000200160009054906101000a900473ffffffffffffffffffffffffffffffffffffffff16905060006002600087815260200190815260200160002060008373ffffffffffffffffffffffffffffffffffffffff1673ffffffffffffffffffffffffffffffffffffffff1681526020019081526020016000205490506000848287600201546117bf91906122f9565b6117c9919061236a565b90508273ffffffffffffffffffffffffffffffffffffffff166108fc829081150290604051600060405180830381858888f19350505050158015611811573d6000803e3d6000fd5b50505050808061182090612019565b915050611703565b507faf91ffe368225045d42f7c2b4b90feb438133ac1e375e73bc9066652b70a1d77836040516118589190611bb9565b60405180910390a1505050565b600460009054906101000a900473ffffffffffffffffffffffffffffffffffffffff1681565b60006002600084815260200190815260200160002060008373ffffffffffffffffffffffffffffffffffffffff1673ffffffffffffffffffffffffffffffffffffffff16815260200190815260200160002054905092915050565b60016020528060005260406000206000915090508060000160009054906101000a900473ffffffffffffffffffffffffffffffffffffffff16908060010154908060020154908060030154908060040160009054906101000a900460ff16908060040160019054906101000a900460ff16908060060160009054906101000a900460ff16908060070154905088565b61197d6119f8565b600073ffffffffffffffffffffffffffffffffffffffff168173ffffffffffffffffffffffffffffffffffffffff16036119ec576040517f08c379a00000000000000000000000000000000000000000000000000000000081526004016119e39061297c565b60405180910390fd5b6119f581611a76565b50565b611a00611b3a565b73ffffffffffffffffffffffffffffffffffffffff16611a1e610b54565b73ffffffffffffffffffffffffffffffffffffffff1614611a74576040517f08c379a0000000000000000000000000000000000000000000000000000000008152600401611a6b906129e8565b60405180910390fd5b565b60008060009054906101000a900473ffffffffffffffffffffffffffffffffffffffff169050816000806101000a81548173ffffffffffffffffffffffffffffffffffffffff021916908373ffffffffffffffffffffffffffffffffffffffff1602179055508173ffffffffffffffffffffffffffffffffffffffff168173ffffffffffffffffffffffffffffffffffffffff167f8be0079c531659141344cd1fd0a4f28419497f9722a3daafe3b4186f6b6457e060405160405180910390a35050565b600033905090565b600080fd5b6000819050919050565b611b5a81611b47565b8114611b6557600080fd5b50565b600081359050611b7781611b51565b92915050565b600060208284031215611b9357611b92611b42565b5b6000611ba184828501611b68565b91505092915050565b611bb381611b47565b82525050565b6000602082019050611bce6000830184611baa565b92915050565b600073ffffffffffffffffffffffffffffffffffffffff82169050919050565b6000611bff82611bd4565b9050919050565b611c0f81611bf4565b8114611c1a57600080fd5b50565b600081359050611c2c81611c06565b92915050565b60008060408385031215611c4957611c48611b42565b5b6000611c5785828601611b68565b9250506020611c6885828601611c1d565b9150509250929050565b611c7b81611bf4565b82525050565b60008115159050919050565b611c9681611c81565b82525050565b600060ff82169050919050565b611cb281611c9c565b82525050565b600060e082019050611ccd600083018a611c72565b611cda6020830189611baa565b611ce76040830188611baa565b611cf46060830187611baa565b611d016080830186611c8d565b611d0e60a0830185611c8d565b611d1b60c0830184611ca9565b98975050505050505050565b600081519050919050565b600082825260208201905092915050565b6000819050602082019050919050565b611d5c81611bf4565b82525050565b6000611d6e8383611d53565b60208301905092915050565b6000602082019050919050565b6000611d9282611d27565b611d9c8185611d32565b9350611da783611d43565b8060005b83811015611dd8578151611dbf8882611d62565b9750611dca83611d7a565b925050600181019050611dab565b5085935050505092915050565b60006020820190508181036000830152611dff8184611d87565b905092915050565b6000602082019050611e1c6000830184611c72565b92915050565b60008060408385031215611e3957611e38611b42565b5b6000611e4785828601611b68565b9250506020611e5885828601611b68565b9150509250929050565b6000819050919050565b6000611e87611e82611e7d84611bd4565b611e62565b611bd4565b9050919050565b6000611e9982611e6c565b9050919050565b6000611eab82611e8e565b9050919050565b611ebb81611ea0565b82525050565b6000602082019050611ed66000830184611eb2565b92915050565b600061010082019050611ef2600083018b611c72565b611eff602083018a611baa565b611f0c6040830189611baa565b611f196060830188611baa565b611f266080830187611c8d565b611f3360a0830186611c8d565b611f4060c0830185611ca9565b611f4d60e0830184611baa565b9998505050505050505050565b600060208284031215611f7057611f6f611b42565b5b6000611f7e84828501611c1d565b91505092915050565b7f4e487b7100000000000000000000000000000000000000000000000000000000600052603260045260246000fd5b7f4e487b7100000000000000000000000000000000000000000000000000000000600052601160045260246000fd5b6000611ff082611b47565b9150611ffb83611b47565b925082820190508082111561201357612012611fb6565b5b92915050565b600061202482611b47565b91507fffffffffffffffffffffffffffffffffffffffffffffffffffffffffffffffff820361205657612055611fb6565b5b600182019050919050565b600082825260208201905092915050565b7f4c6f616e20697320696e61637469766500000000000000000000000000000000600082015250565b60006120a8601083612061565b91506120b382612072565b602082019050919050565b600060208201905081810360008301526120d78161209b565b9050919050565b7f4c6f616e20616c72656164792072657061696400000000000000000000000000600082015250565b6000612114601383612061565b915061211f826120de565b602082019050919050565b6000602082019050818103600083015261214381612107565b9050919050565b7f4c6f616e206973206f7665726475650000000000000000000000000000000000600082015250565b6000612180600f83612061565b915061218b8261214a565b602082019050919050565b600060208201905081810360008301526121af81612173565b9050919050565b60006121c182611b47565b91506121cc83611b47565b92508282039050818111156121e4576121e3611fb6565b5b92915050565b7f4c6f616e20616c72656164792066756c6c792066756e64656400000000000000600082015250565b6000612220601983612061565b915061222b826121ea565b602082019050919050565b6000602082019050818103600083015261224f81612213565b9050919050565b600060608201905061226b6000830186611baa565b6122786020830185611c72565b6122856040830184611baa565b949350505050565b7f4c6f616e20616d6f756e74206d75737420626520706f73697469766500000000600082015250565b60006122c3601c83612061565b91506122ce8261228d565b602082019050919050565b600060208201905081810360008301526122f2816122b6565b9050919050565b600061230482611b47565b915061230f83611b47565b925082820261231d81611b47565b9150828204841483151761233457612333611fb6565b5b5092915050565b7f4e487b7100000000000000000000000000000000000000000000000000000000600052601260045260246000fd5b600061237582611b47565b915061238083611b47565b9250826123905761238f61233b565b5b828204905092915050565b7f4174206c656173742031302520636f6c6c61746572616c207265717569726564600082015250565b60006123d1602083612061565b91506123dc8261239b565b602082019050919050565b60006020820190508181036000830152612400816123c4565b9050919050565b600060a08201905061241c6000830188611baa565b6124296020830187611c72565b6124366040830186611baa565b6124436060830185611baa565b6124506080830184611ca9565b9695505050505050565b7f4e6f74206c6f616e20626f72726f776572000000000000000000000000000000600082015250565b6000612490601183612061565b915061249b8261245a565b602082019050919050565b600060208201905081810360008301526124bf81612483565b9050919050565b7f4c6f616e206f7665726475650000000000000000000000000000000000000000600082015250565b60006124fc600c83612061565b9150612507826124c6565b602082019050919050565b6000602082019050818103600083015261252b816124ef565b9050919050565b7f4c6f616e206e6f742066756c6c792066756e6465640000000000000000000000600082015250565b6000612568601583612061565b915061257382612532565b602082019050919050565b600060208201905081810360008301526125978161255b565b9050919050565b7f52657061796d656e74206d7573742062652067726561746572207468616e2030600082015250565b60006125d4602083612061565b91506125df8261259e565b602082019050919050565b60006020820190508181036000830152612603816125c7565b9050919050565b600061261582611c9c565b915061262083611c9c565b925082820261262e81611c9c565b91508082146126405761263f611fb6565b5b5092915050565b600061265282611c9c565b915061265d83611c9c565b9250828201905060ff81111561267657612675611fb6565b5b92915050565b61268581611c81565b811461269057600080fd5b50565b6000815190506126a28161267c565b92915050565b6000602082840312156126be576126bd611b42565b5b60006126cc84828501612693565b91505092915050565b600081519050919050565b60005b838110156126fe5780820151818401526020810190506126e3565b60008484015250505050565b6000601f19601f8301169050919050565b6000612726826126d5565b6127308185612061565b93506127408185602086016126e0565b6127498161270a565b840191505092915050565b60006040820190506127696000830185611c72565b818103602083015261277b818461271b565b90509392505050565b60008151905061279381611b51565b92915050565b6000602082840312156127af576127ae611b42565b5b60006127bd84828501612784565b91505092915050565b7f4c6f616e206e6f74206f76657264756500000000000000000000000000000000600082015250565b60006127fc601083612061565b9150612807826127c6565b602082019050919050565b6000602082019050818103600083015261282b816127ef565b9050919050565b7f416c726561647920726570616964000000000000000000000000000000000000600082015250565b6000612868600e83612061565b915061287382612832565b602082019050919050565b600060208201905081810360008301526128978161285b565b9050919050565b7f4c6f616e206e6f74206163746976650000000000000000000000000000000000600082015250565b60006128d4600f83612061565b91506128df8261289e565b602082019050919050565b60006020820190508181036000830152612903816128c7565b9050919050565b7f4f776e61626c653a206e6577206f776e657220697320746865207a65726f206160008201527f6464726573730000000000000000000000000000000000000000000000000000602082015250565b6000612966602683612061565b91506129718261290a565b604082019050919050565b6000602082019050818103600083015261299581612959565b9050919050565b7f4f776e61626c653a2063616c6c6572206973206e6f7420746865206f776e6572600082015250565b60006129d2602083612061565b91506129dd8261299c565b602082019050919050565b60006020820190508181036000830152612a01816129c5565b905091905056fe68747470733a2f2f697066732e696f2f697066732f6261666b726569677161667664376c64626871367561746a3536727277786e6e663766346e356f6a33646d787436626f6a6664667174377374363468747470733a2f2f697066732e696f2f697066732f6261666b7265696562376e36373474336170626167796932746a64707964776f636b75726835616f7637326566736a7a6d6b696f77706a61326e6968747470733a2f2f697066732e696f2f697066732f6261666b726569626777663476776f6f32666436636f64376e3436756c7a76756c62356734796873726e64707a7266657a34716a79707a6861737568747470733a2f2f697066732e696f2f697066732f6261666b726569686a7968756670706c676565696b353366366e73797a696837686f6c786b7a37336476756b6b33626f63747068337377616c6a71a2646970667358221220b394f04b64af47d721304aa1cfabec921c722b7fc3442f4e4dc1a1a62423a72064736f6c63430008140033",
  "linkReferences": {},
  "deployedLinkReferences": {}
}