{
  "_format": "hh-sol-artifact-1",
  "contractName": "ReputationNFT",
  "sourceName": "contracts/FinFlow.sol",
  "abi": [
    {
      "inputs": [],
      "stateMutability": "nonpayable",
      "type": "constructor"
    },
    {
      "anonymous": false,
      "inputs": [
        {
          "indexed": true,
          "internalType": "address",
          "name": "owner",
          "type": "address"
        },
        {
          "indexed": true,
          "internalType": "address",
          "name": "approved",
          "type": "address"
        },
        {
          "indexed": true,
          "internalType": "uint256",
          "name": "tokenId",
          "type": "uint256"
        }
      ],
      "name": "Approval",
      "type": "event"
    },
    {
      "anonymous": false,
      "inputs": [
        {
          "indexed": true,
          "internalType": "address",
          "name": "owner",
          "type": "address"
        },
        {
          "indexed": true,
          "internalType": "address",
          "name": "operator",
          "type": "address"
        },
        {
          "indexed": false,
          "internalType": "bool",
          "name": "approved",
          "type": "bool"
        }
      ],
      "name": "ApprovalForAll",
      "type": "event"
    },
    {
      "anonymous": false,
      "inputs": [
        {
          "indexed": false,
          "internalType": "uint256",
          "name": "_fromTokenId",
          "type": "uint256"
        },
        {
          "indexed": false,
          "internalType": "uint256",
          "name": "_toTokenId",
          "type": "uint256"
        }
      ],
      "name": "BatchMetadataUpdate",
      "type": "event"
    },
    {
      "anonymous": false,
      "inputs": [
        {
          "indexed": false,
          "internalType": "uint256",
          "name": "_tokenId",
          "type": "uint256"
        }
      ],
      "name": "MetadataUpdate",
      "type": "event"
    },
    {
      "anonymous": false,
      "inputs": [
        {
          "indexed": true,
          "internalType": "address",
          "name": "previousOwner",
          "type": "address"
        },
        {
          "indexed": true,
          "internalType": "address",
          "name": "newOwner",
          "type": "address"
        }
      ],
      "name": "OwnershipTransferred",
      "type": "event"
    },
    {
      "anonymous": false,
      "inputs": [
        {
          "indexed": true,
          "internalType": "address",
          "name": "from",
          "type": "address"
        },
        {
          "indexed": true,
          "internalType": "address",
          "name": "to",
          "type": "address"
        },
        {
          "indexed": true,
          "internalType": "uint256",
          "name": "tokenId",
          "type": "uint256"
        }
      ],
      "name": "Transfer",
      "type": "event"
    },
    {
      "inputs": [
        {
          "internalType": "address",
          "name": "to",
          "type": "address"
        },
        {
          "internalType": "uint256",
          "name": "tokenId",
          "type": "uint256"
        }
      ],
      "name": "approve",
      "outputs": [],
      "stateMutability": "nonpayable",
      "type": "function"
    },
    {
      "inputs": [
        {
          "internalType": "address",
          "name": "owner",
          "type": "address"
        }
      ],
      "name": "balanceOf",
      "outputs": [
        {
          "internalType": "uint256",
          "name": "",
          "type": "uint256"
        }
      ],
      "stateMutability": "view",
      "type": "function"
    },
    {
      "inputs": [
        {
          "internalType": "uint256",
          "name": "tokenId",
          "type": "uint256"
        }
      ],
      "name": "getApproved",
      "outputs": [
        {
          "internalType": "address",
          "name": "",
          "type": "address"
        }
      ],
      "stateMutability": "view",
      "type": "function"
    },
    {
      "inputs": [
        {
          "internalType": "address",
          "name": "",
          "type": "address"
        }
      ],
      "name": "hasMinted",
      "outputs": [
        {
          "internalType": "bool",
          "name": "",
          "type": "bool"
        }
      ],
      "stateMutability": "view",
      "type": "function"
    },
    {
      "inputs": [
        {
          "internalType": "address",
          "name": "owner",
          "type": "address"
        },
        {
          "internalType": "address",
          "name": "operator",
          "type": "address"
        }
      ],
      "name": "isApprovedForAll",
      "outputs": [
        {
          "internalType": "bool",
          "name": "",
          "type": "bool"
        }
      ],
      "stateMutability": "view",
      "type": "function"
    },
    {
      "inputs": [
        {
          "internalType": "address",
          "name": "recipient",
          "type": "address"
        },
        {
          "internalType": "string",
          "name": "tokenURI",
          "type": "string"
        }
      ],
      "name": "mint",
      "outputs": [
        {
          "internalType": "uint256",
          "name": "",
          "type": "uint256"
        }
      ],
      "stateMutability": "nonpayable",
      "type": "function"
    },
    {
      "inputs": [],
      "name": "name",
      "outputs": [
        {
          "internalType": "string",
          "name": "",
          "type": "string"
        }
      ],
      "stateMutability": "view",
      "type": "function"
    },
    {
      "inputs": [],
      "name": "owner",
      "outputs": [
        {
          "internalType": "address",
          "name": "",
          "type": "address"
        }
      ],
      "stateMutability": "view",
      "type": "function"
    },
    {
      "inputs": [
        {
          "internalType": "uint256",
          "name": "tokenId",
          "type": "uint256"
        }
      ],
      "name": "ownerOf",
      "outputs": [
        {
          "internalType": "address",
          "name": "",
          "type": "address"
        }
      ],
      "stateMutability": "view",
      "type": "function"
    },
    {
      "inputs": [],
      "name": "renounceOwnership",
      "outputs": [],
      "stateMutability": "nonpayable",
      "type": "function"
    },
    {
      "inputs": [
        {
          "internalType": "address",
          "name": "from",
          "type": "address"
        },
        {
          "internalType": "address",
          "name": "to",
          "type": "address"
        },
        {
          "internalType": "uint256",
          "name": "tokenId",
          "type": "uint256"
        }
      ],
      "name": "safeTransferFrom",
      "outputs": [],
      "stateMutability": "nonpayable",
      "type": "function"
    },
    {
      "inputs": [
        {
          "internalType": "address",
          "name": "from",
          "type": "address"
        },
        {
          "internalType": "address",
          "name": "to",
          "type": "address"
        },
        {
          "internalType": "uint256",
          "name": "tokenId",
          "type": "uint256"
        },
        {
          "internalType": "bytes",
          "name": "data",
          "type": "bytes"
        }
      ],
      "name": "safeTransferFrom",
      "outputs": [],
      "stateMutability": "nonpayable",
      "type": "function"
    },
    {
      "inputs": [
        {
          "internalType": "address",
          "name": "operator",
          "type": "address"
        },
        {
          "internalType": "bool",
          "name": "approved",
          "type": "bool"
        }
      ],
      "name": "setApprovalForAll",
      "outputs": [],
      "stateMutability": "nonpayable",
      "type": "function"
    },
    {
      "inputs": [
        {
          "internalType": "bytes4",
          "name": "interfaceId",
          "type": "bytes4"
        }
      ],
      "name": "supportsInterface",
      "outputs": [
        {
          "internalType": "bool",
          "name": "",
          "type": "bool"
        }
      ],
      "stateMutability": "view",
      "type": "function"
    },
    {
      "inputs": [],
      "name": "symbol",
      "outputs": [
        {
          "internalType": "string",
          "name": "",
          "type": "string"
        }
      ],
      "stateMutability": "view",
      "type": "function"
    },
    {
      "inputs": [
        {
          "internalType": "address",
          "name": "",
          "type": "address"
        }
      ],
      "name": "tokenIdByOwner",
      "outputs": [
        {
          "internalType": "uint256",
          "name": "",
          "type": "uint256"
        }
      ],
      "stateMutability": "view",
      "type": "function"
    },
    {
      "inputs": [
        {
          "internalType": "uint256",
          "name": "tokenId",
          "type": "uint256"
        }
      ],
      "name": "tokenURI",
      "outputs": [
        {
          "internalType": "string",
          "name": "",
          "type": "string"
        }
      ],
      "stateMutability": "view",
      "type": "function"
    },
    {
      "inputs": [
        {
          "internalType": "address",
          "name": "from",
          "type": "address"
        },
        {
          "internalType": "address",
          "name": "to",
          "type": "address"
        },
        {
          "internalType": "uint256",
          "name": "tokenId",
          "type": "uint256"
        }
      ],
      "name": "transferFrom",
      "outputs": [],
      "stateMutability": "nonpayable",
      "type": "function"
    },
    {
      "inputs": [
        {
          "internalType": "address",
          "name": "newOwner",
          "type": "address"
        }
      ],
      "name": "transferOwnership",
      "outputs": [],
      "stateMutability": "nonpayable",
      "type": "function"
    }
  ],
  "bytecode": "0x60806040523480156200001157600080fd5b506040518060400160405280601181526020017f46696e466c6f7752657075746174696f6e0000000000000000000000000000008152506040518060400160405280600481526020017f465245500000000000000000000000000000000000000000000000000000000081525081600090816200008f919062000412565b508060019081620000a1919062000412565b505050620000c4620000b8620000ca60201b60201c565b620000d260201b60201c565b620004f9565b600033905090565b6000600760009054906101000a900473ffffffffffffffffffffffffffffffffffffffff16905081600760006101000a81548173ffffffffffffffffffffffffffffffffffffffff021916908373ffffffffffffffffffffffffffffffffffffffff1602179055508173ffffffffffffffffffffffffffffffffffffffff168173ffffffffffffffffffffffffffffffffffffffff167f8be0079c531659141344cd1fd0a4f28419497f9722a3daafe3b4186f6b6457e060405160405180910390a35050565b600081519050919050565b7f4e487b7100000000000000000000000000000000000000000000000000000000600052604160045260246000fd5b7f4e487b7100000000000000000000000000000000000000000000000000000000600052602260045260246000fd5b600060028204905060018216806200021a57607f821691505b60208210810362000230576200022f620001d2565b5b50919050565b60008190508160005260206000209050919050565b60006020601f8301049050919050565b600082821b905092915050565b6000600883026200029a7fffffffffffffffffffffffffffffffffffffffffffffffffffffffffffffffff826200025b565b620002a686836200025b565b95508019841693508086168417925050509392505050565b6000819050919050565b6000819050919050565b6000620002f3620002ed620002e784620002be565b620002c8565b620002be565b9050919050565b6000819050919050565b6200030f83620002d2565b620003276200031e82620002fa565b84845462000268565b825550505050565b600090565b6200033e6200032f565b6200034b81848462000304565b505050565b5b8181101562000373576200036760008262000334565b60018101905062000351565b5050565b601f821115620003c2576200038c8162000236565b62000397846200024b565b81016020851015620003a7578190505b620003bf620003b6856200024b565b83018262000350565b50505b505050565b600082821c905092915050565b6000620003e760001984600802620003c7565b1980831691505092915050565b6000620004028383620003d4565b9150826002028217905092915050565b6200041d8262000198565b67ffffffffffffffff811115620004395762000438620001a3565b5b62000445825462000201565b6200045282828562000377565b600060209050601f8311600181146200048a576000841562000475578287015190505b620004818582620003f4565b865550620004f1565b601f1984166200049a8662000236565b60005b82811015620004c4578489015182556001820191506020850194506020810190506200049d565b86831015620004e45784890151620004e0601f891682620003d4565b8355505b6001600288020188555050505b505050505050565b61318080620005096000396000f3fe608060405234801561001057600080fd5b50600436106101215760003560e01c8063715018a6116100ad578063bd8ff6ba11610071578063bd8ff6ba14610306578063c87b56dd14610336578063d0def52114610366578063e985e9c514610396578063f2fde38b146103c657610121565b8063715018a6146102885780638da5cb5b1461029257806395d89b41146102b0578063a22cb465146102ce578063b88d4fde146102ea57610121565b806323b872dd116100f457806323b872dd146101c057806338e21cce146101dc57806342842e0e1461020c5780636352211e1461022857806370a082311461025857610121565b806301ffc9a71461012657806306fdde0314610156578063081812fc14610174578063095ea7b3146101a4575b600080fd5b610140600480360381019061013b9190611e99565b6103e2565b60405161014d9190611ee1565b60405180910390f35b61015e610443565b60405161016b9190611f8c565b60405180910390f35b61018e60048036038101906101899190611fe4565b6104d5565b60405161019b9190612052565b60405180910390f35b6101be60048036038101906101b99190612099565b61051b565b005b6101da60048036038101906101d591906120d9565b610632565b005b6101f660048036038101906101f1919061212c565b610692565b6040516102039190611ee1565b60405180910390f35b610226600480360381019061022191906120d9565b6106b2565b005b610242600480360381019061023d9190611fe4565b6106d2565b60405161024f9190612052565b60405180910390f35b610272600480360381019061026d919061212c565b610758565b60405161027f9190612168565b60405180910390f35b61029061080f565b005b61029a610823565b6040516102a79190612052565b60405180910390f35b6102b861084d565b6040516102c59190611f8c565b60405180910390f35b6102e860048036038101906102e391906121af565b6108df565b005b61030460048036038101906102ff9190612324565b6108f5565b005b610320600480360381019061031b919061212c565b610957565b60405161032d9190612168565b60405180910390f35b610350600480360381019061034b9190611fe4565b61096f565b60405161035d9190611f8c565b60405180910390f35b610380600480360381019061037b9190612448565b610a81565b60405161038d9190612168565b60405180910390f35b6103b060048036038101906103ab91906124a4565b610bea565b6040516103bd9190611ee1565b60405180910390f35b6103e060048036038101906103db919061212c565b610c7e565b005b6000634906490660e01b7bffffffffffffffffffffffffffffffffffffffffffffffffffffffff1916827bffffffffffffffffffffffffffffffffffffffffffffffffffffffff1916148061043c575061043b82610d01565b5b9050919050565b60606000805461045290612513565b80601f016020809104026020016040519081016040528092919081815260200182805461047e90612513565b80156104cb5780601f106104a0576101008083540402835291602001916104cb565b820191906000526020600020905b8154815290600101906020018083116104ae57829003601f168201915b5050505050905090565b60006104e082610de3565b6004600083815260200190815260200160002060009054906101000a900473ffffffffffffffffffffffffffffffffffffffff169050919050565b6000610526826106d2565b90508073ffffffffffffffffffffffffffffffffffffffff168373ffffffffffffffffffffffffffffffffffffffff1603610596576040517f08c379a000000000000000000000000000000000000000000000000000000000815260040161058d906125b6565b60405180910390fd5b8073ffffffffffffffffffffffffffffffffffffffff166105b5610e2e565b73ffffffffffffffffffffffffffffffffffffffff1614806105e457506105e3816105de610e2e565b610bea565b5b610623576040517f08c379a000000000000000000000000000000000000000000000000000000000815260040161061a90612648565b60405180910390fd5b61062d8383610e36565b505050565b61064361063d610e2e565b82610eef565b610682576040517f08c379a0000000000000000000000000000000000000000000000000000000008152600401610679906126da565b60405180910390fd5b61068d838383610f84565b505050565b60096020528060005260406000206000915054906101000a900460ff1681565b6106cd838383604051806020016040528060008152506108f5565b505050565b6000806106de8361127d565b9050600073ffffffffffffffffffffffffffffffffffffffff168173ffffffffffffffffffffffffffffffffffffffff160361074f576040517f08c379a000000000000000000000000000000000000000000000000000000000815260040161074690612746565b60405180910390fd5b80915050919050565b60008073ffffffffffffffffffffffffffffffffffffffff168273ffffffffffffffffffffffffffffffffffffffff16036107c8576040517f08c379a00000000000000000000000000000000000000000000000000000000081526004016107bf906127d8565b60405180910390fd5b600360008373ffffffffffffffffffffffffffffffffffffffff1673ffffffffffffffffffffffffffffffffffffffff168152602001908152602001600020549050919050565b6108176112ba565b6108216000611338565b565b6000600760009054906101000a900473ffffffffffffffffffffffffffffffffffffffff16905090565b60606001805461085c90612513565b80601f016020809104026020016040519081016040528092919081815260200182805461088890612513565b80156108d55780601f106108aa576101008083540402835291602001916108d5565b820191906000526020600020905b8154815290600101906020018083116108b857829003601f168201915b5050505050905090565b6108f16108ea610e2e565b83836113fe565b5050565b610906610900610e2e565b83610eef565b610945576040517f08c379a000000000000000000000000000000000000000000000000000000000815260040161093c906126da565b60405180910390fd5b6109518484848461156a565b50505050565b600a6020528060005260406000206000915090505481565b606061097a82610de3565b600060066000848152602001908152602001600020805461099a90612513565b80601f01602080910402602001604051908101604052809291908181526020018280546109c690612513565b8015610a135780601f106109e857610100808354040283529160200191610a13565b820191906000526020600020905b8154815290600101906020018083116109f657829003601f168201915b505050505090506000610a246115c6565b90506000815103610a39578192505050610a7c565b600082511115610a6e578082604051602001610a56929190612834565b60405160208183030381529060405292505050610a7c565b610a77846115dd565b925050505b919050565b6000610a8b6112ba565b600960008473ffffffffffffffffffffffffffffffffffffffff1673ffffffffffffffffffffffffffffffffffffffff16815260200190815260200160002060009054906101000a900460ff1615610b18576040517f08c379a0000000000000000000000000000000000000000000000000000000008152600401610b0f906128a4565b60405180910390fd5b610b226008611645565b6000610b2e600861165b565b9050610b3a8482611669565b610b448184611886565b6001600960008673ffffffffffffffffffffffffffffffffffffffff1673ffffffffffffffffffffffffffffffffffffffff16815260200190815260200160002060006101000a81548160ff02191690831515021790555080600a60008673ffffffffffffffffffffffffffffffffffffffff1673ffffffffffffffffffffffffffffffffffffffff168152602001908152602001600020819055508091505092915050565b6000600560008473ffffffffffffffffffffffffffffffffffffffff1673ffffffffffffffffffffffffffffffffffffffff16815260200190815260200160002060008373ffffffffffffffffffffffffffffffffffffffff1673ffffffffffffffffffffffffffffffffffffffff16815260200190815260200160002060009054906101000a900460ff16905092915050565b610c866112ba565b600073ffffffffffffffffffffffffffffffffffffffff168173ffffffffffffffffffffffffffffffffffffffff1603610cf5576040517f08c379a0000000000000000000000000000000000000000000000000000000008152600401610cec90612936565b60405180910390fd5b610cfe81611338565b50565b60007f80ac58cd000000000000000000000000000000000000000000000000000000007bffffffffffffffffffffffffffffffffffffffffffffffffffffffff1916827bffffffffffffffffffffffffffffffffffffffffffffffffffffffff19161480610dcc57507f5b5e139f000000000000000000000000000000000000000000000000000000007bffffffffffffffffffffffffffffffffffffffffffffffffffffffff1916827bffffffffffffffffffffffffffffffffffffffffffffffffffffffff1916145b80610ddc5750610ddb8261192a565b5b9050919050565b610dec81611994565b610e2b576040517f08c379a0000000000000000000000000000000000000000000000000000000008152600401610e2290612746565b60405180910390fd5b50565b600033905090565b816004600083815260200190815260200160002060006101000a81548173ffffffffffffffffffffffffffffffffffffffff021916908373ffffffffffffffffffffffffffffffffffffffff160217905550808273ffffffffffffffffffffffffffffffffffffffff16610ea9836106d2565b73ffffffffffffffffffffffffffffffffffffffff167f8c5be1e5ebec7d5bd14f71427d1e84f3dd0314c0f7b2291e5b200ac8c7c3b92560405160405180910390a45050565b600080610efb836106d2565b90508073ffffffffffffffffffffffffffffffffffffffff168473ffffffffffffffffffffffffffffffffffffffff161480610f3d5750610f3c8185610bea565b5b80610f7b57508373ffffffffffffffffffffffffffffffffffffffff16610f63846104d5565b73ffffffffffffffffffffffffffffffffffffffff16145b91505092915050565b8273ffffffffffffffffffffffffffffffffffffffff16610fa4826106d2565b73ffffffffffffffffffffffffffffffffffffffff1614610ffa576040517f08c379a0000000000000000000000000000000000000000000000000000000008152600401610ff1906129c8565b60405180910390fd5b600073ffffffffffffffffffffffffffffffffffffffff168273ffffffffffffffffffffffffffffffffffffffff1603611069576040517f08c379a000000000000000000000000000000000000000000000000000000000815260040161106090612a5a565b60405180910390fd5b61107683838360016119d5565b8273ffffffffffffffffffffffffffffffffffffffff16611096826106d2565b73ffffffffffffffffffffffffffffffffffffffff16146110ec576040517f08c379a00000000000000000000000000000000000000000000000000000000081526004016110e3906129c8565b60405180910390fd5b6004600082815260200190815260200160002060006101000a81549073ffffffffffffffffffffffffffffffffffffffff02191690556001600360008573ffffffffffffffffffffffffffffffffffffffff1673ffffffffffffffffffffffffffffffffffffffff168152602001908152602001600020600082825403925050819055506001600360008473ffffffffffffffffffffffffffffffffffffffff1673ffffffffffffffffffffffffffffffffffffffff16815260200190815260200160002060008282540192505081905550816002600083815260200190815260200160002060006101000a81548173ffffffffffffffffffffffffffffffffffffffff021916908373ffffffffffffffffffffffffffffffffffffffff160217905550808273ffffffffffffffffffffffffffffffffffffffff168473ffffffffffffffffffffffffffffffffffffffff167fddf252ad1be2c89b69c2b068fc378daa952ba7f163c4a11628f55a4df523b3ef60405160405180910390a46112788383836001611a56565b505050565b60006002600083815260200190815260200160002060009054906101000a900473ffffffffffffffffffffffffffffffffffffffff169050919050565b6112c2610e2e565b73ffffffffffffffffffffffffffffffffffffffff166112e0610823565b73ffffffffffffffffffffffffffffffffffffffff1614611336576040517f08c379a000000000000000000000000000000000000000000000000000000000815260040161132d90612ac6565b60405180910390fd5b565b6000600760009054906101000a900473ffffffffffffffffffffffffffffffffffffffff16905081600760006101000a81548173ffffffffffffffffffffffffffffffffffffffff021916908373ffffffffffffffffffffffffffffffffffffffff1602179055508173ffffffffffffffffffffffffffffffffffffffff168173ffffffffffffffffffffffffffffffffffffffff167f8be0079c531659141344cd1fd0a4f28419497f9722a3daafe3b4186f6b6457e060405160405180910390a35050565b8173ffffffffffffffffffffffffffffffffffffffff168373ffffffffffffffffffffffffffffffffffffffff160361146c576040517f08c379a000000000000000000000000000000000000000000000000000000000815260040161146390612b32565b60405180910390fd5b80600560008573ffffffffffffffffffffffffffffffffffffffff1673ffffffffffffffffffffffffffffffffffffffff16815260200190815260200160002060008473ffffffffffffffffffffffffffffffffffffffff1673ffffffffffffffffffffffffffffffffffffffff16815260200190815260200160002060006101000a81548160ff0219169083151502179055508173ffffffffffffffffffffffffffffffffffffffff168373ffffffffffffffffffffffffffffffffffffffff167f17307eab39ab6107e8899845ad3d59bd9653f200f220920489ca2b5937696c318360405161155d9190611ee1565b60405180910390a3505050565b611575848484610f84565b61158184848484611a5c565b6115c0576040517f08c379a00000000000000000000000000000000000000000000000000000000081526004016115b790612bc4565b60405180910390fd5b50505050565b606060405180602001604052806000815250905090565b60606115e882610de3565b60006115f26115c6565b90506000815111611612576040518060200160405280600081525061163d565b8061161c84611be3565b60405160200161162d929190612834565b6040516020818303038152906040525b915050919050565b6001816000016000828254019250508190555050565b600081600001549050919050565b600073ffffffffffffffffffffffffffffffffffffffff168273ffffffffffffffffffffffffffffffffffffffff16036116d8576040517f08c379a00000000000000000000000000000000000000000000000000000000081526004016116cf90612c30565b60405180910390fd5b6116e181611994565b15611721576040517f08c379a000000000000000000000000000000000000000000000000000000000815260040161171890612c9c565b60405180910390fd5b61172f6000838360016119d5565b61173881611994565b15611778576040517f08c379a000000000000000000000000000000000000000000000000000000000815260040161176f90612c9c565b60405180910390fd5b6001600360008473ffffffffffffffffffffffffffffffffffffffff1673ffffffffffffffffffffffffffffffffffffffff16815260200190815260200160002060008282540192505081905550816002600083815260200190815260200160002060006101000a81548173ffffffffffffffffffffffffffffffffffffffff021916908373ffffffffffffffffffffffffffffffffffffffff160217905550808273ffffffffffffffffffffffffffffffffffffffff16600073ffffffffffffffffffffffffffffffffffffffff167fddf252ad1be2c89b69c2b068fc378daa952ba7f163c4a11628f55a4df523b3ef60405160405180910390a4611882600083836001611a56565b5050565b61188f82611994565b6118ce576040517f08c379a00000000000000000000000000000000000000000000000000000000081526004016118c590612d2e565b60405180910390fd5b806006600084815260200190815260200160002090816118ee9190612efa565b507ff8e1a15aba9398e019f0b49df1a4fde98ee17ae345cb5f6b5e2c27f5033e8ce78260405161191e9190612168565b60405180910390a15050565b60007f01ffc9a7000000000000000000000000000000000000000000000000000000007bffffffffffffffffffffffffffffffffffffffffffffffffffffffff1916827bffffffffffffffffffffffffffffffffffffffffffffffffffffffff1916149050919050565b60008073ffffffffffffffffffffffffffffffffffffffff166119b68361127d565b73ffffffffffffffffffffffffffffffffffffffff1614159050919050565b600073ffffffffffffffffffffffffffffffffffffffff168473ffffffffffffffffffffffffffffffffffffffff1614611a44576040517f08c379a0000000000000000000000000000000000000000000000000000000008152600401611a3b90613018565b60405180910390fd5b611a5084848484611cb1565b50505050565b50505050565b6000611a7d8473ffffffffffffffffffffffffffffffffffffffff16611cb7565b15611bd6578373ffffffffffffffffffffffffffffffffffffffff1663150b7a02611aa6610e2e565b8786866040518563ffffffff1660e01b8152600401611ac8949392919061308d565b6020604051808303816000875af1925050508015611b0457506040513d601f19601f82011682018060405250810190611b0191906130ee565b60015b611b86573d8060008114611b34576040519150601f19603f3d011682016040523d82523d6000602084013e611b39565b606091505b506000815103611b7e576040517f08c379a0000000000000000000000000000000000000000000000000000000008152600401611b7590612bc4565b60405180910390fd5b805181602001fd5b63150b7a0260e01b7bffffffffffffffffffffffffffffffffffffffffffffffffffffffff1916817bffffffffffffffffffffffffffffffffffffffffffffffffffffffff191614915050611bdb565b600190505b949350505050565b606060006001611bf284611cda565b01905060008167ffffffffffffffff811115611c1157611c106121f9565b5b6040519080825280601f01601f191660200182016040528015611c435781602001600182028036833780820191505090505b509050600082602001820190505b600115611ca6578080600190039150507f3031323334353637383961626364656600000000000000000000000000000000600a86061a8153600a8581611c9a57611c9961311b565b5b04945060008503611c51575b819350505050919050565b50505050565b6000808273ffffffffffffffffffffffffffffffffffffffff163b119050919050565b600080600090507a184f03e93ff9f4daa797ed6e38ed64bf6a1f0100000000000000008310611d38577a184f03e93ff9f4daa797ed6e38ed64bf6a1f0100000000000000008381611d2e57611d2d61311b565b5b0492506040810190505b6d04ee2d6d415b85acef81000000008310611d75576d04ee2d6d415b85acef81000000008381611d6b57611d6a61311b565b5b0492506020810190505b662386f26fc100008310611da457662386f26fc100008381611d9a57611d9961311b565b5b0492506010810190505b6305f5e1008310611dcd576305f5e1008381611dc357611dc261311b565b5b0492506008810190505b6127108310611df2576127108381611de857611de761311b565b5b0492506004810190505b60648310611e155760648381611e0b57611e0a61311b565b5b0492506002810190505b600a8310611e24576001810190505b80915050919050565b6000604051905090565b600080fd5b600080fd5b60007fffffffff0000000000000000000000000000000000000000000000000000000082169050919050565b611e7681611e41565b8114611e8157600080fd5b50565b600081359050611e9381611e6d565b92915050565b600060208284031215611eaf57611eae611e37565b5b6000611ebd84828501611e84565b91505092915050565b60008115159050919050565b611edb81611ec6565b82525050565b6000602082019050611ef66000830184611ed2565b92915050565b600081519050919050565b600082825260208201905092915050565b60005b83811015611f36578082015181840152602081019050611f1b565b60008484015250505050565b6000601f19601f8301169050919050565b6000611f5e82611efc565b611f688185611f07565b9350611f78818560208601611f18565b611f8181611f42565b840191505092915050565b60006020820190508181036000830152611fa68184611f53565b905092915050565b6000819050919050565b611fc181611fae565b8114611fcc57600080fd5b50565b600081359050611fde81611fb8565b92915050565b600060208284031215611ffa57611ff9611e37565b5b600061200884828501611fcf565b91505092915050565b600073ffffffffffffffffffffffffffffffffffffffff82169050919050565b600061203c82612011565b9050919050565b61204c81612031565b82525050565b60006020820190506120676000830184612043565b92915050565b61207681612031565b811461208157600080fd5b50565b6000813590506120938161206d565b92915050565b600080604083850312156120b0576120af611e37565b5b60006120be85828601612084565b92505060206120cf85828601611fcf565b9150509250929050565b6000806000606084860312156120f2576120f1611e37565b5b600061210086828701612084565b935050602061211186828701612084565b925050604061212286828701611fcf565b9150509250925092565b60006020828403121561214257612141611e37565b5b600061215084828501612084565b91505092915050565b61216281611fae565b82525050565b600060208201905061217d6000830184612159565b92915050565b61218c81611ec6565b811461219757600080fd5b50565b6000813590506121a981612183565b92915050565b600080604083850312156121c6576121c5611e37565b5b60006121d485828601612084565b92505060206121e58582860161219a565b9150509250929050565b600080fd5b600080fd5b7f4e487b7100000000000000000000000000000000000000000000000000000000600052604160045260246000fd5b61223182611f42565b810181811067ffffffffffffffff821117156122505761224f6121f9565b5b80604052505050565b6000612263611e2d565b905061226f8282612228565b919050565b600067ffffffffffffffff82111561228f5761228e6121f9565b5b61229882611f42565b9050602081019050919050565b82818337600083830152505050565b60006122c76122c284612274565b612259565b9050828152602081018484840111156122e3576122e26121f4565b5b6122ee8482856122a5565b509392505050565b600082601f83011261230b5761230a6121ef565b5b813561231b8482602086016122b4565b91505092915050565b6000806000806080858703121561233e5761233d611e37565b5b600061234c87828801612084565b945050602061235d87828801612084565b935050604061236e87828801611fcf565b925050606085013567ffffffffffffffff81111561238f5761238e611e3c565b5b61239b878288016122f6565b91505092959194509250565b600067ffffffffffffffff8211156123c2576123c16121f9565b5b6123cb82611f42565b9050602081019050919050565b60006123eb6123e6846123a7565b612259565b905082815260208101848484011115612407576124066121f4565b5b6124128482856122a5565b509392505050565b600082601f83011261242f5761242e6121ef565b5b813561243f8482602086016123d8565b91505092915050565b6000806040838503121561245f5761245e611e37565b5b600061246d85828601612084565b925050602083013567ffffffffffffffff81111561248e5761248d611e3c565b5b61249a8582860161241a565b9150509250929050565b600080604083850312156124bb576124ba611e37565b5b60006124c985828601612084565b92505060206124da85828601612084565b9150509250929050565b7f4e487b7100000000000000000000000000000000000000000000000000000000600052602260045260246000fd5b6000600282049050600182168061252b57607f821691505b60208210810361253e5761253d6124e4565b5b50919050565b7f4552433732313a20617070726f76616c20746f2063757272656e74206f776e6560008201527f7200000000000000000000000000000000000000000000000000000000000000602082015250565b60006125a0602183611f07565b91506125ab82612544565b604082019050919050565b600060208201905081810360008301526125cf81612593565b9050919050565b7f4552433732313a20617070726f76652063616c6c6572206973206e6f7420746f60008201527f6b656e206f776e6572206f7220617070726f76656420666f7220616c6c000000602082015250565b6000612632603d83611f07565b915061263d826125d6565b604082019050919050565b6000602082019050818103600083015261266181612625565b9050919050565b7f4552433732313a2063616c6c6572206973206e6f7420746f6b656e206f776e6560008201527f72206f7220617070726f76656400000000000000000000000000000000000000602082015250565b60006126c4602d83611f07565b91506126cf82612668565b604082019050919050565b600060208201905081810360008301526126f3816126b7565b9050919050565b7f4552433732313a20696e76616c696420746f6b656e2049440000000000000000600082015250565b6000612730601883611f07565b915061273b826126fa565b602082019050919050565b6000602082019050818103600083015261275f81612723565b9050919050565b7f4552433732313a2061646472657373207a65726f206973206e6f74206120766160008201527f6c6964206f776e65720000000000000000000000000000000000000000000000602082015250565b60006127c2602983611f07565b91506127cd82612766565b604082019050919050565b600060208201905081810360008301526127f1816127b5565b9050919050565b600081905092915050565b600061280e82611efc565b61281881856127f8565b9350612828818560208601611f18565b80840191505092915050565b60006128408285612803565b915061284c8284612803565b91508190509392505050565b7f416c7265616479206d696e74656420666f722074686973206164647265737300600082015250565b600061288e601f83611f07565b915061289982612858565b602082019050919050565b600060208201905081810360008301526128bd81612881565b9050919050565b7f4f776e61626c653a206e6577206f776e657220697320746865207a65726f206160008201527f6464726573730000000000000000000000000000000000000000000000000000602082015250565b6000612920602683611f07565b915061292b826128c4565b604082019050919050565b6000602082019050818103600083015261294f81612913565b9050919050565b7f4552433732313a207472616e736665722066726f6d20696e636f72726563742060008201527f6f776e6572000000000000000000000000000000000000000000000000000000602082015250565b60006129b2602583611f07565b91506129bd82612956565b604082019050919050565b600060208201905081810360008301526129e1816129a5565b9050919050565b7f4552433732313a207472616e7366657220746f20746865207a65726f2061646460008201527f7265737300000000000000000000000000000000000000000000000000000000602082015250565b6000612a44602483611f07565b9150612a4f826129e8565b604082019050919050565b60006020820190508181036000830152612a7381612a37565b9050919050565b7f4f776e61626c653a2063616c6c6572206973206e6f7420746865206f776e6572600082015250565b6000612ab0602083611f07565b9150612abb82612a7a565b602082019050919050565b60006020820190508181036000830152612adf81612aa3565b9050919050565b7f4552433732313a20617070726f766520746f2063616c6c657200000000000000600082015250565b6000612b1c601983611f07565b9150612b2782612ae6565b602082019050919050565b60006020820190508181036000830152612b4b81612b0f565b9050919050565b7f4552433732313a207472616e7366657220746f206e6f6e20455243373231526560008201527f63656976657220696d706c656d656e7465720000000000000000000000000000602082015250565b6000612bae603283611f07565b9150612bb982612b52565b604082019050919050565b60006020820190508181036000830152612bdd81612ba1565b9050919050565b7f4552433732313a206d696e7420746f20746865207a65726f2061646472657373600082015250565b6000612c1a602083611f07565b9150612c2582612be4565b602082019050919050565b60006020820190508181036000830152612c4981612c0d565b9050919050565b7f4552433732313a20746f6b656e20616c7265616479206d696e74656400000000600082015250565b6000612c86601c83611f07565b9150612c9182612c50565b602082019050919050565b60006020820190508181036000830152612cb581612c79565b9050919050565b7f45524337323155524953746f726167653a2055524920736574206f66206e6f6e60008201527f6578697374656e7420746f6b656e000000000000000000000000000000000000602082015250565b6000612d18602e83611f07565b9150612d2382612cbc565b604082019050919050565b60006020820190508181036000830152612d4781612d0b565b9050919050565b60008190508160005260206000209050919050565b60006020601f8301049050919050565b600082821b905092915050565b600060088302612db07fffffffffffffffffffffffffffffffffffffffffffffffffffffffffffffffff82612d73565b612dba8683612d73565b95508019841693508086168417925050509392505050565b6000819050919050565b6000612df7612df2612ded84611fae565b612dd2565b611fae565b9050919050565b6000819050919050565b612e1183612ddc565b612e25612e1d82612dfe565b848454612d80565b825550505050565b600090565b612e3a612e2d565b612e45818484612e08565b505050565b5b81811015612e6957612e5e600082612e32565b600181019050612e4b565b5050565b601f821115612eae57612e7f81612d4e565b612e8884612d63565b81016020851015612e97578190505b612eab612ea385612d63565b830182612e4a565b50505b505050565b600082821c905092915050565b6000612ed160001984600802612eb3565b1980831691505092915050565b6000612eea8383612ec0565b9150826002028217905092915050565b612f0382611efc565b67ffffffffffffffff811115612f1c57612f1b6121f9565b5b612f268254612513565b612f31828285612e6d565b600060209050601f831160018114612f645760008415612f52578287015190505b612f5c8582612ede565b865550612fc4565b601f198416612f7286612d4e565b60005b82811015612f9a57848901518255600182019150602085019450602081019050612f75565b86831015612fb75784890151612fb3601f891682612ec0565b8355505b6001600288020188555050505b505050505050565b7f536f756c626f756e643a2063616e6e6f74207472616e73666572000000000000600082015250565b6000613002601a83611f07565b915061300d82612fcc565b602082019050919050565b6000602082019050818103600083015261303181612ff5565b9050919050565b600081519050919050565b600082825260208201905092915050565b600061305f82613038565b6130698185613043565b9350613079818560208601611f18565b61308281611f42565b840191505092915050565b60006080820190506130a26000830187612043565b6130af6020830186612043565b6130bc6040830185612159565b81810360608301526130ce8184613054565b905095945050505050565b6000815190506130e881611e6d565b92915050565b60006020828403121561310457613103611e37565b5b6000613112848285016130d9565b91505092915050565b7f4e487b7100000000000000000000000000000000000000000000000000000000600052601260045260246000fdfea2646970667358221220a878d81a5a02e769f484aaa72230df1f20afbcc77354d42448169945f74f494564736f6c63430008140033",
  "linkReferences": {},
  "deployedLinkReferences": {}
}